:020000040000FA
:10000000980A0020F100000011010000D500000056
:1000100000000000000000000000000000000000E0
:1000200000000000000000000000000015010000BA
:10003000000000000000000017010000190100008E
:100040001B0100001B0100001B010000F104000067
:100050001B0100001B0100001B0100001B01000030
:10006000250800001B0100001B0100001B0100000F
:100070001B0100001B0100001B0100001B01000010
:100080001B0100001B0100001B0100001B01000000
:100090001B0100001B0100001B0100001B010000F0
:1000A0001B0100001B0100001B0100001B010000E0
:1000B0001B0100001B0100001B0100001B010000D0
:1000C0000348854600F07AF8004800472D0D0000EF
:1000D000980A002004207146084202D0EFF30980FC
:1000E00001E0EFF308807146004A1047A5050000C3
:1000F0000A480B4901600B4901600B4901600B4A3A
:100100000B491160002101600A4880470A480047F6
:10011000FEE7FEE7FEE7FEE7FEE7FEE70001005030
:100120005900000016000000880000002400005064
:10013000A55A000011080000C1000000421C01780F
:10014000401C0029FBD1801A704703460A780270D0
:10015000401C491C002AF9D118467047F0B51FB45D
:100160000646002082B005464024019100901BE025
:10017000019922460F46304600F042F8049A059B4A
:10018000801A994110D310461946224600F028F8EB
:10019000361A8F410197224601200021009F00F06E
:1001A0001FF838184D4100902046641E0028DFDCFF
:1001B000019B00982946324607B0F0BD064C012548
:1001C000064E05E0E36807CC2B430C3C98471034FF
:1001D000B442F7D3FFF778FF3C0F00005C0F00003C
:1001E00010B5202A04DB0146203A9140002010BDC2
:1001F000914020239C1A0346E3401943904010BDD0
:1002000010B5202A04DB0846203AD040002110BD5A
:100210000B46D340D0402024A21A914008431946EF
:1002200010BD70B58C180578401C6B075B0F01D1B1
:100230000378401C2A1106D10278401C03E006789E
:100240000E70401C491C5B1EF9D12B0705D40023FE
:10025000521E0DD40B70491CFAE70378401CCB1AD0
:10026000921C03E01D780D70491C5B1C521EF9D5D1
:10027000A142D8D3002070BD0248816801221143F9
:100280008160704700000140002100E0491C81426C
:10029000FCD3704770B50025064E2C46325D3221E6
:1002A000284600F0B9FD0C35641C64B26DB2062C12
:1002B000F4DB70BD0A000020FEB500F083FC344979
:1002C0000878344D00262A463232029219320192C1
:1002D00019322C467D34171F43350092030000F07D
:1002E000E7FA07051C2137414B4E54002AA1294843
:1002F000FFF72BFF27482DA11930FFF726FF30A16C
:100300000298FFF722FF35A10198FFF71EFF36A1E3
:100310000098FFF71AFF37A120E01E4839A12230CC
:10032000067407E04878002808D03BA10298FFF740
:100330000CFF3EA10198FFF708FF04E031A10298ED
:10034000FFF703FF2E723E712670FFF7A3FF1CE03C
:100350002E7239A11046FFF7F8FE3CA12046FFF7A8
:10036000F4FE12E03DA10198FFF7EFFE40A10098D6
:10037000FFF7EBFE43A1F1E72E7245A101E02E72DB
:100380004AA11046FFF7E1FE267000F09DF8FEBD81
:1003900000000020FC01002045454554323438312E
:1003A000202D2047726F757020313900446F6F72B5
:1003B000204C6F636B2053797374656D00000000EF
:1003C00053656C6563742066726F6D207468652078
:1003D000666F6C6C6F77696E670000006F70746990
:1003E0006F6E733A20000000312E20556E6C6F63E3
:1003F0006B000000322E204368616E6765204B65FC
:1004000079000000456E74657220746865206B6524
:100410007920636F64650000456E74657220612009
:100420006E65772036206469676974006B65792092
:10043000636F6465000000004B657920636F64653D
:1004400020636F727265637400000000446F6F7206
:1004500020556E6C6F636B65640000004B657920FE
:10046000436F646520496E636F7272656374000048
:1004700053797374656D207265737461727473203F
:10048000696E000031207365636F6E6400000000C8
:100490004B657920636F64652068617320626565D0
:1004A0006E206368616E6765640000005365747454
:1004B000696E6720686173206265656E207265737E
:1004C000657474656400000070B5084D002419203F
:1004D0006043421921460A204143002000F0C4FC39
:1004E000641C64B2062CF2DB70BD0000FC0100202D
:1004F00010B50B4906200870FFF7DEFE00F0B8F8D3
:1005000000F0C2F87D20000100F00CF900F034F991
:100510000448016A0122D2031143016210BD0000A8
:1005200000000020404000500B4801688900890805
:10053000016082690121C9038A438261C2690A4359
:10054000C26106480168082211430160044801683D
:1005500089008908016070474040005000E100E0D8
:1005600000E400E010B50E4A9178062917D2002861
:1005700015DDD378002B12D0134610333030585489
:100580009B1F5854491C91700020D07000F078F9DE
:10059000FFF792FEC82000F0C5F800F0EDF810BD9E
:1005A00000000020044603A000F072F9204600F08D
:1005B00071FCFEE7496E2048617264204661756CEB
:1005C000742048616E646C65720A000000B50F48C3
:1005D0000168090A090201600168032211430160F0
:1005E0000168D206914301600168016000F012F9D0
:1005F000FF200749013008600648826840218A438D
:10060000826082680A43826000BD000000000140F1
:1006100000E100E000E400E0074910B500200A46D0
:100620000C320B5C145CA34201D0002010BD401CB6
:100630000628F6DB012010BD0400002004480168F4
:10064000044A114001600168D243114301607047C0
:10065000004000506ABFFFFF00B5044800218170D0
:100660000121C17000F010F800BD00000000002062
:10067000044A0020014631311154401CC0B2062802
:10068000F8D37047040000200020044A5F21115471
:10069000401CC0B20628FAD3704700000A000020B0
:1006A0000248016801221143016070470040134075
:1006B000F0B50021114D0226114C0127A0682843F6
:1006C000A060A268731A384698408243A260002056
:1006D0002369C21CD340DA07D20F09D0401CC0B234
:1006E0000328F5D3491CC9B20329E7D30020F0BD84
:1006F000420080184018401CC0B2F0BDFFFF00004F
:100700000040005006498A691202FCD408600A2899
:1007100004D188690002FCD40D20086070470000F5
:100720000000054005494A68120E12064A604A68F0
:10073000034B584302434A607047000000000140E9
:10074000B80B0000054A002011460C39135C0B540D
:10075000401CC0B20628F9D37047000010000020EA
:10076000044881681322914381608168012211430A
:1007700081607047004013400248016882031143C2
:10078000016070470000014070B510235924162500
:100790001A481B49882602E00C600D600E600A684A
:1007A000012AF9D1174C226801252A43226003E06F
:1007B0000246401E002A03DDE5681A46AA43F7D127
:1007C0001148A060A06804221043A060052212070F
:1007D000D06B0F231B021843D0630C4802688305BB
:1007E0009A430260026801235B071A430260826831
:1007F000DB139A4382600020086070BD804F1200B6
:10080000000100500002005001800000C040005074
:1008100070470000024801684203114301607047BD
:100820000000014010B515490A780020042A1ED0A6
:100830000A78032A1BD00A78012A0CD00A78022AE7
:1008400009D00A78042A12D00A78052A0FD00A782B
:10085000062A0CD00CE08878002805D0074B2A2205
:100860000A3318182038C2770120C87000E00870D9
:10087000FFF722FDFFF700FD10BD00000000002083
:1008800000B5FFF715FF40B20028FAD100BD000007
:100890000FB410B503A9044B044A029800F024F8E1
:1008A00010BC08BC04B01847190C0000F801002067
:1008B00030B47446641E2578641CAB4200D21D46D9
:1008C000635D5B00E31830BC184702E008C8121FE4
:1008D00008C1002AFAD170477047002001E001C129
:1008E000121F002AFBD17047FFB58FB00F46044698
:1008F000002606E025280AD0129A11999047641C18
:10090000761C20780028F5D1304613B0F0BD0025C4
:100910000121A14A009500E00543641C23780846A4
:10092000203B98401042F7D120782E2815D1042082
:1009300005436078641C2A280AD101CF641C00900A
:100940000BE000990A22514330394018641C009092
:100950002078014630390929F3D920786C280ED047
:1009600004DC4C2813D06A2812D104E074280ED07D
:100970007A280DD10BE001204005054307E0012155
:10098000090562780D43824201D16D18641C641C14
:100990002078864669284AD008DC0028B4D0582838
:1009A0006DD0632810D0642808D140E070286BD047
:1009B000732812D0752860D0782860D0129A7046BB
:1009C00011999047761CE5E0387869460872002056
:1009D000487202A80190012003E0386801900020CD
:1009E000C0433F1D69070CD5002500E06D1C009930
:1009F0008D420FDA8542F9DB0199495D0029F5D175
:100A000008E0002500E06D1C8542FCDB0199495D92
:100A10000029F8D1761907E0019801990078491C5E
:100A20000191129A119990476D1EF5D2B2E00A20F9
:100A3000029000216802400F039102280CD001CFE0
:100A4000C117844600290DDA624608465242002149
:100A5000814194462D2008E0FF1DFF08FF0003CFD1
:100A60008446EFE7280504D52B206A461074012040
:100A70003CE0E8073AD02020F7E70A2000E0102009
:100A800000210391029007E0102002900021042031
:100A900005430820039100906802400F022810D0FF
:100AA00001CF0021844600200D9028071FD57046F5
:100AB00070280CD0029A1020039B42401A430CD09D
:100AC00015E0FF1DFF08FF0003CF8446EBE7402041
:100AD0006A46107401200D900CE06046084306D071
:100AE00030206A4610747046507402200D90704693
:100AF000582804D029A001900DA80E900DE02CA03C
:100B0000F9E76046039B029AFFF728FB019B8446A6
:100B10009B5C0E9A521E0E92137060460843F0D1F1
:100B20000E9805A9081A20300190680701D5009891
:100B300001E0012000900199884203DD01460198FF
:100B4000081A00E000200025009006E004A8129A90
:100B5000405D119990476D1C761C0D988542F5DB20
:100B600004E0129A302011999047761C0099481E93
:100B700000900029F5DC08E00E980E990078491CD9
:100B80000E91129A11999047761C0199481E019076
:100B90000029F1DC641CB4E609280100303132334D
:100BA00034353637383961626364656600000000A9
:100BB0003031323334353637383941424344454693
:100BC0000000000030B50021124D0A46CB175B0F24
:100BD0005B180020DB10DB011C186419401C00B2FC
:100BE00022708028F8DB491C09B24029EEDB002185
:100BF000084600F043F8002421256D01002000F094
:100C000081F8641C24B2AC42F8DB0F2000F07AF8C3
:100C100030BD00009202002000B50346FFF772FDD0
:100C2000184600BD00B500F011F8EB2000F056F8B2
:100C3000812000F053F8A02000F050F8C02000F010
:100C40004DF8AF2000F04AF800BD000009484C21E3
:100C50000160C16B42041143C16307494A698023A3
:100C60001A434A610021416081680B2291438160EF
:100C700070470000004013400002005030B50C46A1
:100C80000546FFF76DFDB020134B05431D62FFF7CE
:100C900007FD1868C007FCD198680D25A843986027
:100CA000FFF75EFD200910301862FFF7F9FC1868A5
:100CB000C007FCD19868A8439860FFF751FD200752
:100CC000000F1862FFF7ECFC1868C007FCD19868A9
:100CD000A843986030BD00000040134000B50346B3
:100CE000FFF73EFD06490B620868012210430860C9
:100CF0000868C007FCD1886840084000886000BDD3
:100D00000040134010B50446FFF72AFD064BFF34A0
:100D100001341C62FFF7C4FC1868C007FCD1986856
:100D20000D218843986010BD00401340FFF72CFD53
:100D3000FFF7FAFBFFF74AFCFFF774FFFFF742FFEC
:100D4000FFF77CFCFFF7B8FA0425304C0126207829
:100D50000300FFF7ADFD030417350300F7E7FFF7C6
:100D6000A7FC47B2002FF2D0FFF78AFD012F02D077
:100D7000022F02D003E0267001E002202070FFF76E
:100D80009BFAE4E7FFF794FC40B2FFF7EBFBA07897
:100D90000628DCD11E48FFF777FAFFF73DFC002854
:100DA00003D0032020701B482CE0257019208001FF
:100DB00028E0FFF781FAFFF7DFFCFFF74DFCC6E7FD
:100DC000FFF776FC40B2FFF7CDFBA0780628BED136
:100DD0000F48FFF759FA607800280AD0FFF7B2FCF5
:100DE000052020707D200001FFF79CFC0020607032
:100DF000DFE7FFF711FC002801D06670D9E7257006
:100E00007D200001FFF78EFCD3E7000000000020EA
:100E1000804F1200B80B0000F0B57B2820DA39298A
:100E20001EDA202A01D37F2A01D9202201E0203AAC
:100E3000D2B281231E1AC817400F4018C5100024D3
:100E400090001718301BC1B2E8B2FFF717FF054832
:100E50003919405CFFF756FF641CE4B2052CF1D34E
:100E6000F0BD000016000020F8B516460F460546F6
:100E7000002408E0325D39462846FFF7CDFF6D1D9E
:100E8000641C2DB2E4B23046FFF758F9A042F1D805
:100E9000F8BD000010B50446016810A0FFF7F8FC8B
:100EA00011A06168FFF7F4FC12A0A168FFF7F0FC45
:100EB00013A0E168FFF7ECFC14A02169FFF7E8FC40
:100EC00015A06169FFF7E4FC16A0A169FFF7E0FC3B
:100ED00017A0E169FFF7DCFC10BD00007230202094
:100EE0003D20307825780A00723120203D2030786E
:100EF00025780A00723220203D20307825780A00BB
:100F0000723320203D20307825780A00723132205B
:100F10003D20307825780A006C7220203D20307802
:100F200025780A00706320203D20307825780A005B
:100F3000707372203D20307825780A005C0F000025
:100F400000000020FC010000220200001811000037
:100F5000FC0100209C080000DA080000313809017B
:100F60003132333435365F01D1290E1A07021B1492
:100F70007F021010242A7F2A122313086462364944
:100F8000552250330503241C22411441221C100B0E
:100F9000082A1C2A0808083E0808235030190B1993
:100FA0000A236060100B20100804023E5149453EA0
:100FB00014427F40102942615149462141454B313D
:100FC0001814127F1027454545393C4A49493001DC
:100FD000710905033649494936064949291E333600
:100FE000362A56052E0814224114011541221408F0
:100FF00028110201510906324979413E7E11111131
:101000007E7F321F3E414141227F042A1C0F1F4137
:101010007F09090101141C51327F86127F14417F20
:10102000412F2040413F017F4B1B7F4001280B7F18
:101030000204027F7F0408107F3C1A3E32180E091A
:10104000063E4151215E7F0919294646461808315E
:1010500001017F01013F2C18163F1F2040201F7FF8
:101060002018207F63140814630304780403C72343
:10107000454319751A0246252041417F2E0402017D
:1010800002045E1240190911181020545454787F3C
:10109000484444383844444420051C487F381410E0
:1010A0001118087E090102081454543C7F080404F6
:1010B000781C447D40A01B443D4F1C102844AF12B7
:1010C000402F7C041804787C1E293C1B387CFE2FA2
:1010D00008081414187C141B084846180D20043FF7
:1010E0004440203C4040207C1CA018091C3C40305F
:1010F000403C442841100B0C5050503C4464544C2C
:101100004434083641199B1114413608600B080815
:081110002A1C08081C2A08082B
:04000005000000F106
:00000001FF
